:100000000C945E000C9486000C9486000C94860080
:100010000C9486000C9486000C9486000C94860048
:100020000C9486000C9486000C941D030C94C7035A
:100030000C94D6020C9486000C9486000C948600D6
:100040000C9434020C9486000C94A4020C947E024E
:100050000C9486000C9486000C9486000C94860008
:100060000C9486000C948600000000080002010039
:100070000003040700000000000000000000000072
:10008000250028002B0000000000240027002A0083
:10009000040404040404040402020202020203032E
:1000A0000303030301020408102040800102040836
:1000B00010200102040810206004050611241FBE50
:1000C000CFEFD8E0DEBFCDBF11E0A0E0B1E0E6E7C2
:1000D000FCE002C005900D92A23AB107D9F722E0E8
:1000E000A2EAB1E001C01D92A83FB207E1F710E01B
:1000F000CDE5D0E004C02197FE010E942306CC3557
:10010000D107C9F70E9499040C942E060C940000A4
:10011000CF92DF92EF92FF920F931F93CF93DF93D3
:100120006C017A018B01C0E0D0E0CE15DF0581F0D3
:10013000D8016D918D01D601ED91FC910190F08176
:10014000E02DC6010995892B11F02196EECF7E0195
:10015000C701DF91CF911F910F91FF90EF90DF903A
:10016000CF900895FC01538D448D252F30E0842FCE
:1001700090E0821B930B541710F0CF9608950197CF
:100180000895FC01918D828D981761F0828DDF01B9
:10019000A80FB11D5D968C91928D9F5F9F73928F7A
:1001A00090E008958FEF9FEF0895FC01918D828D6F
:1001B000981731F0828DE80FF11D858D90E008953C
:1001C0008FEF9FEF0895FC01918D228D892F90E094
:1001D000805C9F4F821B91098F73992708958FE44C
:1001E00092E00E94E30021E0892B09F420E0822FB5
:1001F0000895FC01848DDF01A80FB11DA35ABF4FE4
:100200002C91848D90E001968F739927848FA68915
:10021000B7892C93A089B1898C91837080648C9369
:10022000938D848D981306C00288F389E02D808118
:100230008F7D80830895EF92FF920F931F93CF934A
:10024000DF93EC0181E0888F9B8D8C8D981305C026
:10025000E889F989808185FD26C0F62E0B8D10E096
:100260000F5F1F4F0F731127E02E8C8DE8120CC00B
:100270000FB607FCFACFE889F989808185FFF5CFB1
:10028000CE010E94F900F1CF8B8DFE01E80FF11D28
:10029000E35AFF4FF0829FB7F8940B8FEA89FB89EE
:1002A000808180620AC09FB7F894EE89FF896083DD
:1002B000E889F98980818370806480839FBF81E0B1
:1002C00090E0DF91CF911F910F91FF90EF900895F3
:1002D000CF93DF93EC01888D8823C9F0EA89FB89ED
:1002E000808185FD05C0A889B9898C9186FD0FC0E4
:1002F0000FB607FCF5CF808185FFF2CFA889B989B9
:100300008C9185FFEDCFCE010E94F900E7CFDF9100
:10031000CF91089580E090E0892B29F00E94EF00B2
:1003200081110C94000008955091400240913F02C9
:10033000852F90E0242F30E0541710F4805B9F4FFE
:10034000821B930B089580914002E0913F028E172B
:1003500051F0EF5FE03508F0E0E0F0E0E451FE4FEF
:10036000808190E008958FEF9FEF08958091400283
:1003700090913F02891769F09F5F903508F090E0F7
:10038000E92FF0E0E451FE4F808190933F0290E02E
:1003900008958FEF9FEF089590913D029F5F9434F1
:1003A00008F090E020913C022917E1F32FB7F89470
:1003B00030913E02332341F0E92FF0E0EE55FE4F3D
:1003C000808390933D021DC091E090933E02809304
:1003D000E7011092E60182E086BB80916F008260A7
:1003E00080936F00809180008F7B80688093800075
:1003F000809184009091850040969093890080932D
:1004000088002FBF089580913E028111FCCF08958E
:10041000862F0E94CC0181E090E00895089580E04D
:1004200090E00895009769F0FC0101900020E9F741
:100430003197AF01481B590BBC018FE492E00C943B
:10044000880080E090E00895CF93DF930E9412022D
:10045000EC0186E291E00E9412028C0F9D1FDF9159
:10046000CF9108950E9429061F920F920FB60F9206
:1004700011242F933F938F939F93AF93BF938091BA
:100480004B0290914C02A0914D02B0914E023091DE
:100490004A0223E0230F2D3720F40196A11DB11D40
:1004A00005C026E8230F0296A11DB11D20934A0224
:1004B00080934B0290934C02A0934D02B0934E0256
:1004C0008091460290914702A0914802B091490262
:1004D0000196A11DB11D8093460290934702A093FF
:1004E0004802B0934902BF91AF919F918F913F9184
:1004F0002F910F900FBE0F901F9018951F920F9283
:100500000FB60F9211242F933F934F935F936F93E6
:100510007F938F939F93AF93BF93EF93FF938FE45A
:1005200092E00E94F900FF91EF91BF91AF919F91EE
:100530008F917F916F915F914F913F912F910F908C
:100540000FBE0F901F9018951F920F920FB60F922B
:1005500011242F938F939F93EF93FF93E0915F026A
:10056000F09160028081E0916502F091660282FD67
:1005700012C09081809168028F5F8F732091690211
:10058000821751F0E0916802F0E0E15BFD4F958F3A
:100590008093680201C08081FF91EF919F918F91BC
:1005A0002F910F900FBE0F901F9018951F920F92D2
:1005B0000FB60F9211242F938F939F93EF93FF9376
:1005C00080916F008B7F80936F00809181008F7B83
:1005D00080938100809141022091EB0120589091FD
:1005E000EA01893020F49695922B8F5FFACF909391
:1005F000EA01809140028F5F803508F080E0209111
:100600003F02821739F0E82FF0E0E451FE4F90836B
:100610008093400210924102809181008F7B8093F1
:1006200081001092EB01FF91EF919F918F912F919B
:100630000F900FBE0F901F9018951F920F920FB63C
:100640000F9211242F933F934F935F936F937F9358
:100650008F939F93AF93BF93EF93FF938091860007
:10066000909187004091EB0120918100442331F06B
:100670002F7B209381001092EB0106C02064209311
:10068000810020E82093EB0130914102311125C017
:1006900041116CC02091420230914302280F391F52
:1006A00030938B0020938A0024E026BB20916F00BA
:1006B000246020936F002091440230914502820F04
:1006C000931F36952795820F931F9093E90180938E
:1006D000E80181E08093410249C04091E8015091D6
:1006E000E9016091440270914502DB01A095B0954B
:1006F0002091EA01E091EB01841B950BA817B90743
:1007000068F126952E2B460F571F3F5F861B970BD0
:100710003930A0F32093EA0180916F008B7F8093A2
:100720006F00809140028F5F803508F080E09091EB
:100730003F02891749F0E82FF0E09091EA01E45177
:10074000FE4F908380934002809181008F7B809345
:1007500081001092EB011092410208C02093EA013F
:100760005093E9014093E80130934102FF91EF91EA
:10077000BF91AF919F918F917F916F915F914F91B9
:100780003F912F910F900FBE0F901F9018951F92C1
:100790000F920FB60F9211242F933F934F935F93B5
:1007A0006F937F938F939F93EF93FF9380913E027C
:1007B0006091E701209188003091890040914402C6
:1007C000509145029091E6018A30F8F4240F351FCC
:1007D000893019F0762F717001C071E066958F5FD6
:1007E000791791F390918000772311F0906C02C0FB
:1007F0009F7B9068909380003093890020938800BD
:100800007093E6016093E7014AC090913D02E09148
:100810003C029E1319C08A3051F48BE080933E0253
:10082000240F351F30938900209388003AC010921E
:100830003E02809180008F738093800080916F00D2
:100840008D7F80936F002DC0EF5FE43408F0E0E00F
:10085000E0933C02F0E0EE55FE4F90819093E7016B
:100860001092E601909180009F7B906890938000A9
:100870008A3059F48091440290914502280F391F23
:10088000309389002093880009C080918400909162
:1008900085004096909389008093880081E0809342
:1008A0003E02FF91EF919F918F917F916F915F91A8
:1008B0004F913F912F910F900FBE0F901F90189561
:1008C000EFE4F2E01382128288EE93E0A0E0B0E061
:1008D00084839583A683B78326E031E03183208328
:1008E00025EC30E03587248724EC30E037872687F5
:1008F00020EC30E0318B208B21EC30E0338B228BED
:1009000022EC30E0358B248B26EC30E0378B268BC5
:10091000118E128E138E148EECEEF2E01382128280
:1009200084839583A683B78388E191E09183808354
:100930000895789484B5826084BD84B5816084BD57
:1009400085B5826085BD85B5816085BD80916E006D
:10095000816080936E00109281008091810082609E
:1009600080938100809181008160809381008091DB
:1009700080008160809380008091B10084608093CA
:10098000B1008091B00081608093B00080917A00C6
:10099000846080937A0080917A00826080937A00EC
:1009A00080917A00816080937A0080917A008068DB
:1009B00080937A001092C100E0915F02F091600292
:1009C00082E08083E0915B02F0915C021082E09112
:1009D0005D02F0915E028FEC808310926702E091DD
:1009E0006302F091640286E08083E0916102F091FD
:1009F0006202808180618083E0916102F0916202F5
:100A0000808188608083E0916102F0916202808140
:100A100080688083E0916102F091620280818F7D25
:100A2000808389E291E00E94120284E391E00E94B7
:100A300024028DE691E00E94120288E791E00E9474
:100A4000240282E391E00E94240210926F0010922F
:100A5000800081E88093810083E896E090934502CE
:100A6000809344028BE39CE3909343028093420281
:100A7000ECEAF0E02491E8E9F0E084918823C1F009
:100A800090E0880F991FFC01EA57FF4FC591D49160
:100A9000FC01E458FF4FA591B4919FB7F894888169
:100AA000322F309583238883EC91E22BEC939FBF08
:100AB000E1E7F0E024914DEA50E0FA01649189E920
:100AC00090E0FC0174917723B9F1222339F12330AE
:100AD00091F038F42130A9F0223001F534B53F7D92
:100AE00012C0273091F02830A1F02430B9F43091B1
:100AF00080003F7D03C0309180003F7730938000BD
:100B00000DC034B53F7734BD09C03091B0003F7798
:100B100003C03091B0003F7D3093B000E72FF0E08C
:100B2000EE0FFF1FE458FF4FA591B4913FB7F89423
:100B30002C91262B2C933FBFFA014491FC01849108
:100B4000882399F090E0880F991FFC01EA57FF4F26
:100B5000A591B491FC01E458FF4F859194919FB702
:100B6000F8948C91482B4C939FBF109241021092A5
:100B7000400210923F0210923E0210923D021092EB
:100B80003C0280E286BB80936F0084E891E00E9483
:100B90002402D1E08CEE92E00E949401892B59F05E
:100BA0008CEE92E00E94B60180930101682F8FE4E1
:100BB00092E00E941B018FE492E00E94E300892BE7
:100BC00009F18FE492E00E94C100809301018A3014
:100BD00021F08D3011F00E94CC018091000188231A
:100BE00031F08DE991E00E94120210920001C09153
:100BF00001016C2F8FE492E00E941B01CA3011F4B6
:100C0000D09300010E948A01C5CF88E191E09093C2
:100C1000ED028093EC0280916F008B7F80936F00D8
:100C200080916F008F7D80936F0080913F02809351
:100C3000400280913E028111FCCF80916F008D7F38
:100C400080936F000895EE0FFF1F0590F491E02D43
:100C5000099481E090E0F8940C942E0610E0CDE524
:100C6000D0E004C0FE010E9423062196CE35D107B4
:060C7000C9F7F894FFCF64
:100C76000120000000001B018800B2006801E300AB
:100C8600C100D50000000000080288000F02030220
:100C96009401B601A3010D0A00536B657463683AAB
:100CA600202020002F746D702F61726475696E6F3D
:100CB6005F6D6F6469666965645F736B65746368AD
:100CC6005F3839323234392F53657269616C5F424D
:100CD600545F61736B5F41542E696E6F0055706C83
:100CE6006F616465643A20004465632020372032D2
:100CF60030313800425473657269616C20737461D7
:100D0600727465642061742039363030000D0A3EF5
:020D16000000DB
:107E0000112484B714BE81FFF0D085E080938100F7
:107E100082E08093C00088E18093C10086E0809377
:107E2000C20080E18093C4008EE0C9D0259A86E02C
:107E300020E33CEF91E0309385002093840096BBD3
:107E4000B09BFECF1D9AA8958150A9F7CC24DD24C4
:107E500088248394B5E0AB2EA1E19A2EF3E0BF2EE7
:107E6000A2D0813461F49FD0082FAFD0023811F036
:107E7000013811F484E001C083E08DD089C08234E0
:107E800011F484E103C0853419F485E0A6D080C0E4
:107E9000853579F488D0E82EFF2485D0082F10E0AE
:107EA000102F00270E291F29000F111F8ED06801E7
:107EB0006FC0863521F484E090D080E0DECF843638
:107EC00009F040C070D06FD0082F6DD080E0C81688
:107ED00080E7D80618F4F601B7BEE895C0E0D1E017
:107EE00062D089930C17E1F7F0E0CF16F0E7DF06D8
:107EF00018F0F601B7BEE89568D007B600FCFDCFD4
:107F0000A601A0E0B1E02C9130E011968C91119780
:107F100090E0982F8827822B932B1296FA010C0160
:107F200087BEE89511244E5F5F4FF1E0A038BF0790
:107F300051F7F601A7BEE89507B600FCFDCF97BE46
:107F4000E89526C08437B1F42ED02DD0F82E2BD052
:107F50003CD0F601EF2C8F010F5F1F4F84911BD097
:107F6000EA94F801C1F70894C11CD11CFA94CF0C13
:107F7000D11C0EC0853739F428D08EE10CD085E9AC
:107F80000AD08FE07ACF813511F488E018D01DD067
:107F900080E101D065CF982F8091C00085FFFCCF94
:107FA0009093C60008958091C00087FFFCCF809118
:107FB000C00084FD01C0A8958091C6000895E0E648
:107FC000F0E098E1908380830895EDDF803219F02E
:107FD00088E0F5DFFFCF84E1DECF1F93182FE3DFCA
:107FE0001150E9F7F2DF1F91089580E0E8DFEE27F6
:047FF000FF270994CA
:027FFE00040479
:0400000300007E007B
:00000001FF
