:100000000C945E000C9486000C9486000C94860080
:100010000C9486000C9486000C9486000C94860048
:100020000C9486000C9486000C941D030C94C7035A
:100030000C94D6020C9486000C9486000C948600D6
:100040000C9434020C9486000C94A4020C947E024E
:100050000C9486000C9486000C9486000C94860008
:100060000C9486000C948600000000080002010039
:100070000003040700000000000000000000000072
:10008000250028002B0000000000240027002A0083
:10009000040404040404040402020202020203032E
:1000A0000303030301020408102040800102040836
:1000B00010200102040810206004370611241FBE1E
:1000C000CFEFD8E0DEBFCDBF11E0A0E0B1E0EEE1C0
:1000D000FDE002C005900D92AA3BB107D9F723E0DD
:1000E000AAEBB1E001C01D92A031B207E1F710E028
:1000F000CDE5D0E004C02197FE010E947706CC3503
:10010000D107C9F70E9499040C9482060C94000050
:10011000CF92DF92EF92FF920F931F93CF93DF93D3
:100120006C017A018B01C0E0D0E0CE15DF0581F0D3
:10013000D8016D918D01D601ED91FC910190F08176
:10014000E02DC6010995892B11F02196EECF7E0195
:10015000C701DF91CF911F910F91FF90EF90DF903A
:10016000CF900895FC01538D448D252F30E0842FCE
:1001700090E0821B930B541710F0CF9608950197CF
:100180000895FC01918D828D981761F0828DDF01B9
:10019000A80FB11D5D968C91928D9F5F9F73928F7A
:1001A00090E008958FEF9FEF0895FC01918D828D6F
:1001B000981731F0828DE80FF11D858D90E008953C
:1001C0008FEF9FEF0895FC01918D228D892F90E094
:1001D000805C9F4F821B91098F739927089587E652
:1001E00092E00E94E30021E0892B09F420E0822FB5
:1001F0000895FC01848DDF01A80FB11DA35ABF4FE4
:100200002C91848D90E001968F739927848FA68915
:10021000B7892C93A089B1898C91837080648C9369
:10022000938D848D981306C00288F389E02D808118
:100230008F7D80830895EF92FF920F931F93CF934A
:10024000DF93EC0181E0888F9B8D8C8D981305C026
:10025000E889F989808185FD26C0F62E0B8D10E096
:100260000F5F1F4F0F731127E02E8C8DE8120CC00B
:100270000FB607FCFACFE889F989808185FFF5CFB1
:10028000CE010E94F900F1CF8B8DFE01E80FF11D28
:10029000E35AFF4FF0829FB7F8940B8FEA89FB89EE
:1002A000808180620AC09FB7F894EE89FF896083DD
:1002B000E889F98980818370806480839FBF81E0B1
:1002C00090E0DF91CF911F910F91FF90EF900895F3
:1002D000CF93DF93EC01888D8823C9F0EA89FB89ED
:1002E000808185FD05C0A889B9898C9186FD0FC0E4
:1002F0000FB607FCF5CF808185FFF2CFA889B989B9
:100300008C9185FFEDCFCE010E94F900E7CFDF9100
:10031000CF91089580E090E0892B29F00E94EF00B2
:1003200081110C9400000895509158024091570299
:10033000852F90E0242F30E0541710F4805B9F4FFE
:10034000821B930B089580915802E09157028E17FB
:1003500051F0EF5FE03508F0E0E0F0E0EC5FFD4FDA
:10036000808190E008958FEF9FEF0895809158026B
:1003700090915702891769F09F5F903508F090E0DF
:10038000E92FF0E0EC5FFD4F80819093570290E001
:1003900008958FEF9FEF0895909155029F5F9434D9
:1003A00008F090E0209154022917E1F32FB7F89458
:1003B00030915602332341F0E92FF0E0E654FE4F2E
:1003C0008083909355021DC091E0909356028093D4
:1003D000FF011092FE0182E086BB80916F00826077
:1003E00080936F00809180008F7B80688093800075
:1003F000809184009091850040969093890080932D
:1004000088002FBF0895809156028111FCCF089576
:10041000862F0E94CC0181E090E00895089580E04D
:1004200090E00895009769F0FC0101900020E9F741
:100430003197AF01481B590BBC0187E692E00C9441
:10044000880080E090E00895CF93DF930E9412022D
:10045000EC0186E291E00E9412028C0F9D1FDF9159
:10046000CF9108950E947D061F920F920FB60F92B2
:1004700011242F933F938F939F93AF93BF938091BA
:10048000630290916402A0916502B091660230917E
:10049000620223E0230F2D3720F40196A11DB11D28
:1004A00005C026E8230F0296A11DB11D209362020C
:1004B0008093630290936402A0936502B0936602F6
:1004C00080915E0290915F02A0916002B091610202
:1004D0000196A11DB11D80935E0290935F02A093CF
:1004E0006002B0936102BF91AF919F918F913F9154
:1004F0002F910F900FBE0F901F9018951F920F9283
:100500000FB60F9211242F933F934F935F936F93E6
:100510007F938F939F93AF93BF93EF93FF9387E660
:1005200092E00E94F900FF91EF91BF91AF919F91EE
:100530008F917F916F915F914F913F912F910F908C
:100540000FBE0F901F9018951F920F920FB60F922B
:1005500011242F938F939F93EF93FF93E091770252
:10056000F09178028081E0917D02F0917E0282FD1F
:1005700012C09081809180028F5F8F7320918102E1
:10058000821751F0E0918002F0E0E959FD4F958F1C
:100590008093800201C08081FF91EF919F918F91A4
:1005A0002F910F900FBE0F901F9018951F920F92D2
:1005B0000FB60F9211242F938F939F93EF93FF9376
:1005C00080916F008B7F80936F00809181008F7B83
:1005D00080938100809159022091030220589091CC
:1005E0000202893020F49695922B8F5FFACF909378
:1005F0000202809158028F5F803508F080E02091E0
:100600005702821739F0E82FF0E0EC5FFD4F90833E
:100610008093580210925902809181008F7B8093C1
:10062000810010920302FF91EF919F918F912F9182
:100630000F900FBE0F901F9018951F920F920FB63C
:100640000F9211242F933F934F935F936F937F9358
:100650008F939F93AF93BF93EF93FF938091860007
:10066000909187004091030220918100442331F052
:100670002F7B209381001092030206C020642093F8
:10068000810020E82093030230915902311125C0E6
:1006900041116CC020915A0230915B02280F391F22
:1006A00030938B0020938A0024E026BB20916F00BA
:1006B000246020936F0020915C0230915D02820FD4
:1006C000931F36952795820F931F90930102809375
:1006D000000281E08093590249C04091000250918C
:1006E000010260915C0270915D02DB01A095B09502
:1006F00020910202E0910302841B950BA817B90711
:1007000068F126952E2B460F571F3F5F861B970BD0
:100710003930A0F32093020280916F008B7F809389
:100720006F00809158028F5F803508F080E09091D3
:100730005702891749F0E82FF0E090910202EC5F30
:10074000FD4F908380935802809181008F7B80932E
:100750008100109203021092590208C020930202F5
:10076000509301024093000230935902FF91EF91A0
:10077000BF91AF919F918F917F916F915F914F91B9
:100780003F912F910F900FBE0F901F9018951F92C1
:100790000F920FB60F9211242F933F934F935F93B5
:1007A0006F937F938F939F93EF93FF938091560264
:1007B0006091FF01209188003091890040915C0296
:1007C00050915D029091FE018A30F8F4240F351F9C
:1007D000893019F0762F717001C071E066958F5FD6
:1007E000791791F390918000772311F0906C02C0FB
:1007F0009F7B9068909380003093890020938800BD
:100800007093FE016093FF014AC090915502E09100
:1008100054029E1319C08A3051F48BE08093560223
:10082000240F351F30938900209388003AC010921E
:100830005602809180008F738093800080916F00BA
:100840008D7F80936F002DC0EF5FE43408F0E0E00F
:10085000E0935402F0E0E654FE4F90819093FF0144
:100860001092FE01909180009F7B90689093800091
:100870008A3059F480915C0290915D02280F391FF3
:10088000309389002093880009C080918400909162
:1008900085004096909389008093880081E0809342
:1008A0005602FF91EF919F918F917F916F915F9190
:1008B0004F913F912F910F900FBE0F901F90189561
:1008C000E7E6F2E01382128288EE93E0A0E0B0E067
:1008D00084839583A683B78326E031E03183208328
:1008E00025EC30E03587248724EC30E037872687F5
:1008F00020EC30E0318B208B21EC30E0338B228BED
:1009000022EC30E0358B248B26EC30E0378B268BC5
:10091000118E128E138E148EE4E0F3E01382128295
:1009200084839583A683B78388E191E09183808354
:100930000895CF93DF93CDB7DEB7A1970FB6F894A4
:10094000DEBF0FBECDBF789484B5826084BD84B510
:10095000816084BD85B5826085BD85B5816085BDBA
:1009600080916E00816080936E0010928100809172
:1009700081008260809381008091810081608093FA
:100980008100809180008160809380008091B1001F
:1009900084608093B1008091B00081608093B0004A
:1009A00080917A00846080937A0080917A008260DE
:1009B00080937A0080917A00816080937A008091A0
:1009C0007A00806880937A001092C100E0917702EB
:1009D000F091780282E08083E0917302F0917402DA
:1009E0001082E0917502F09176028FEC8083109274
:1009F0007F02E0917B02F0917C0286E08083E091AF
:100A00007902F0917A02808180618083E09179029D
:100A1000F0917A02808188608083E0917902F09180
:100A20007A02808180688083E0917902F0917A0275
:100A300080818F7D808389E291E00E94120284E3AD
:100A400091E00E9424028AE891E00E94120285E966
:100A500091E00E94240282E391E00E94240210921D
:100A60006F001092800081E88093810083E896E017
:100A700090935D0280935C028BE39CE390935B0216
:100A800080935A02ECEAF0E02491E8E9F0E08491E6
:100A90008823C9F090E0880F991FFC01EA57FF4FA7
:100AA00045915491FC01E458FF4FA591B4919FB733
:100AB000F894FA018081322F309583238083EC9162
:100AC000E22BEC939FBFE1E7F0E024914DEA50E088
:100AD000FA01649189E990E0FC0174917723C9F1EE
:100AE000222349F12330A1F038F42130B9F022302B
:100AF00011F534B53F7D14C02730A1F02830B1F096
:100B00002430C9F4309180003F7D3093800013C0C1
:100B1000209180002F77209380000DC034B53F775F
:100B200034BD09C03091B0003F7703C03091B000B0
:100B30003F7D3093B000E72FF0E0EE0FFF1FE45849
:100B4000FF4FA591B4913FB7F8942C91262B2C938D
:100B50003FBFFA014491FC018491882399F090E011
:100B6000880F991FFC01EA57FF4FA591B491FC0132
:100B7000E458FF4F859194919FB7F8948C91482B3E
:100B80004C939FBF10925902109258021092570234
:100B900010925602109255021092540280E286BBC7
:100BA00080936F0081EA91E00E94120219A28E01E7
:100BB0000F5D1F4F20E835E240E050E08AE0882ECC
:100BC000912CA12CB12C7E01FDE1EF0EF11CCA018C
:100BD000B901A50194010E945506605DF801629378
:100BE0008F01EE15FF0599F7CF010E94120286E2F0
:100BF00091E00E94120201E084E093E00E949401DF
:100C0000892B59F084E093E00E94B60180930101A2
:100C1000682F87E692E00E941B0187E692E00E941F
:100C2000E300892B09F187E692E00E94C1008093DE
:100C300001018A3021F08D3011F00E94CC018091A9
:100C40000001882331F086EB91E00E94120210929D
:100C5000000110910101612F87E692E00E941B01C3
:100C60001A3011F4009300010E948A01C5CF88E177
:100C700091E0909305038093040380916F008B7F34
:100C800080936F0080916F008F7D80936F008091C3
:100C9000570280935802809156028111FCCF8091B7
:100CA0006F008D7F80936F000895A1E21A2EAA1B1A
:100CB000BB1BFD010DC0AA1FBB1FEE1FFF1FA2170C
:100CC000B307E407F50720F0A21BB30BE40BF50B09
:100CD000661F771F881F991F1A9469F76095709592
:100CE000809590959B01AC01BD01CF010895EE0F59
:100CF000FF1F0590F491E02D099481E090E0F894B5
:100D00000C94820610E0CDE5D0E004C0FE010E9404
:0E0D100077062196CE35D107C9F7F894FFCFAC
:100D1E000120000000001B018800B2006801E30002
:100D2E00C100D50000000000080288000F02030277
:100D3E009401B601A3010D0A00536B657463683A02
:100D4E00202020002F686F6D652F68616E64696BBF
:100D5E006F2F42542D546573742D41542D436F6D76
:100D6E006D616E642F41726475696E6F20536B6591
:100D7E007463682F53657269616C5F42545F61736F
:100D8E006B5F41542F53657269616C5F42545F61B2
:100D9E00736B5F41542E696E6F0055706C6F61649A
:100DAE0065643A2000446563203233203230313896
:100DBE0000425473657269616C207374617274655C
:0A0DCE006420617420000D0A3E004D
:107E0000112484B714BE81FFF0D085E080938100F7
:107E100082E08093C00088E18093C10086E0809377
:107E2000C20080E18093C4008EE0C9D0259A86E02C
:107E300020E33CEF91E0309385002093840096BBD3
:107E4000B09BFECF1D9AA8958150A9F7CC24DD24C4
:107E500088248394B5E0AB2EA1E19A2EF3E0BF2EE7
:107E6000A2D0813461F49FD0082FAFD0023811F036
:107E7000013811F484E001C083E08DD089C08234E0
:107E800011F484E103C0853419F485E0A6D080C0E4
:107E9000853579F488D0E82EFF2485D0082F10E0AE
:107EA000102F00270E291F29000F111F8ED06801E7
:107EB0006FC0863521F484E090D080E0DECF843638
:107EC00009F040C070D06FD0082F6DD080E0C81688
:107ED00080E7D80618F4F601B7BEE895C0E0D1E017
:107EE00062D089930C17E1F7F0E0CF16F0E7DF06D8
:107EF00018F0F601B7BEE89568D007B600FCFDCFD4
:107F0000A601A0E0B1E02C9130E011968C91119780
:107F100090E0982F8827822B932B1296FA010C0160
:107F200087BEE89511244E5F5F4FF1E0A038BF0790
:107F300051F7F601A7BEE89507B600FCFDCF97BE46
:107F4000E89526C08437B1F42ED02DD0F82E2BD052
:107F50003CD0F601EF2C8F010F5F1F4F84911BD097
:107F6000EA94F801C1F70894C11CD11CFA94CF0C13
:107F7000D11C0EC0853739F428D08EE10CD085E9AC
:107F80000AD08FE07ACF813511F488E018D01DD067
:107F900080E101D065CF982F8091C00085FFFCCF94
:107FA0009093C60008958091C00087FFFCCF809118
:107FB000C00084FD01C0A8958091C6000895E0E648
:107FC000F0E098E1908380830895EDDF803219F02E
:107FD00088E0F5DFFFCF84E1DECF1F93182FE3DFCA
:107FE0001150E9F7F2DF1F91089580E0E8DFEE27F6
:047FF000FF270994CA
:027FFE00040479
:0400000300007E007B
:00000001FF
