:100000000C945E000C9486000C9486000C94860080
:100010000C9486000C9486000C9486000C94860048
:100020000C9486000C9486000C941D030C94C7035A
:100030000C94D6020C9486000C9486000C948600D6
:100040000C9434020C9486000C94A4020C947E024E
:100050000C9486000C9486000C9486000C94860008
:100060000C9486000C948600000000080002010039
:100070000003040700000000000000000000000072
:10008000250028002B0000000000240027002A0083
:10009000040404040404040402020202020203032E
:1000A0000303030301020408102040800102040836
:1000B00010200102040810206004050611241FBE50
:1000C000CFEFD8E0DEBFCDBF11E0A0E0B1E0E6E7C2
:1000D000FCE002C005900D92AE3BB107D9F723E0DA
:1000E000AEEBB1E001C01D92A431B207E1F710E020
:1000F000CDE5D0E004C02197FE010E942306CC3557
:10010000D107C9F70E9499040C942E060C940000A4
:10011000CF92DF92EF92FF920F931F93CF93DF93D3
:100120006C017A018B01C0E0D0E0CE15DF0581F0D3
:10013000D8016D918D01D601ED91FC910190F08176
:10014000E02DC6010995892B11F02196EECF7E0195
:10015000C701DF91CF911F910F91FF90EF90DF903A
:10016000CF900895FC01538D448D252F30E0842FCE
:1001700090E0821B930B541710F0CF9608950197CF
:100180000895FC01918D828D981761F0828DDF01B9
:10019000A80FB11D5D968C91928D9F5F9F73928F7A
:1001A00090E008958FEF9FEF0895FC01918D828D6F
:1001B000981731F0828DE80FF11D858D90E008953C
:1001C0008FEF9FEF0895FC01918D228D892F90E094
:1001D000805C9F4F821B91098F73992708958BE64E
:1001E00092E00E94E30021E0892B09F420E0822FB5
:1001F0000895FC01848DDF01A80FB11DA35ABF4FE4
:100200002C91848D90E001968F739927848FA68915
:10021000B7892C93A089B1898C91837080648C9369
:10022000938D848D981306C00288F389E02D808118
:100230008F7D80830895EF92FF920F931F93CF934A
:10024000DF93EC0181E0888F9B8D8C8D981305C026
:10025000E889F989808185FD26C0F62E0B8D10E096
:100260000F5F1F4F0F731127E02E8C8DE8120CC00B
:100270000FB607FCFACFE889F989808185FFF5CFB1
:10028000CE010E94F900F1CF8B8DFE01E80FF11D28
:10029000E35AFF4FF0829FB7F8940B8FEA89FB89EE
:1002A000808180620AC09FB7F894EE89FF896083DD
:1002B000E889F98980818370806480839FBF81E0B1
:1002C00090E0DF91CF911F910F91FF90EF900895F3
:1002D000CF93DF93EC01888D8823C9F0EA89FB89ED
:1002E000808185FD05C0A889B9898C9186FD0FC0E4
:1002F0000FB607FCF5CF808185FFF2CFA889B989B9
:100300008C9185FFEDCFCE010E94F900E7CFDF9100
:10031000CF91089580E090E0892B29F00E94EF00B2
:1003200081110C940000089550915C0240915B0291
:10033000852F90E0242F30E0541710F4805B9F4FFE
:10034000821B930B089580915C02E0915B028E17F3
:1003500051F0EF5FE03508F0E0E0F0E0E85FFD4FDE
:10036000808190E008958FEF9FEF089580915C0267
:1003700090915B02891769F09F5F903508F090E0DB
:10038000E92FF0E0E85FFD4F808190935B0290E001
:1003900008958FEF9FEF0895909159029F5F9434D5
:1003A00008F090E0209158022917E1F32FB7F89454
:1003B00030915A02332341F0E92FF0E0E254FE4F2E
:1003C0008083909359021DC091E090935A028093CC
:1003D00003021092020282E086BB80916F0082606D
:1003E00080936F00809180008F7B80688093800075
:1003F000809184009091850040969093890080932D
:1004000088002FBF089580915A028111FCCF089572
:10041000862F0E94CC0181E090E00895089580E04D
:1004200090E00895009769F0FC0101900020E9F741
:100430003197AF01481B590BBC018BE692E00C943D
:10044000880080E090E00895CF93DF930E9412022D
:10045000EC0186E291E00E9412028C0F9D1FDF9159
:10046000CF9108950E9429061F920F920FB60F9206
:1004700011242F933F938F939F93AF93BF938091BA
:10048000670290916802A0916902B0916A0230916E
:10049000660223E0230F2D3720F40196A11DB11D24
:1004A00005C026E8230F0296A11DB11D2093660208
:1004B0008093670290936802A0936902B0936A02E6
:1004C0008091620290916302A0916402B0916502F2
:1004D0000196A11DB11D8093620290936302A093C7
:1004E0006402B0936502BF91AF919F918F913F914C
:1004F0002F910F900FBE0F901F9018951F920F9283
:100500000FB60F9211242F933F934F935F936F93E6
:100510007F938F939F93AF93BF93EF93FF938BE65C
:1005200092E00E94F900FF91EF91BF91AF919F91EE
:100530008F917F916F915F914F913F912F910F908C
:100540000FBE0F901F9018951F920F920FB60F922B
:1005500011242F938F939F93EF93FF93E0917B024E
:10056000F0917C028081E0918102F091820282FD13
:1005700012C09081809184028F5F8F7320918502D9
:10058000821751F0E0918402F0E0E559FD4F958F1C
:100590008093840201C08081FF91EF919F918F91A0
:1005A0002F910F900FBE0F901F9018951F920F92D2
:1005B0000FB60F9211242F938F939F93EF93FF9376
:1005C00080916F008B7F80936F00809181008F7B83
:1005D0008093810080915D022091070220589091C4
:1005E0000602893020F49695922B8F5FFACF909374
:1005F000060280915C028F5F803508F080E02091D8
:100600005B02821739F0E82FF0E0E85FFD4F90833E
:1006100080935C0210925D02809181008F7B8093B9
:10062000810010920702FF91EF919F918F912F917E
:100630000F900FBE0F901F9018951F920F920FB63C
:100640000F9211242F933F934F935F936F937F9358
:100650008F939F93AF93BF93EF93FF938091860007
:10066000909187004091070220918100442331F04E
:100670002F7B209381001092070206C020642093F4
:10068000810020E82093070230915D02311125C0DE
:1006900041116CC020915E0230915F02280F391F1A
:1006A00030938B0020938A0024E026BB20916F00BA
:1006B000246020936F002091600230916102820FCC
:1006C000931F36952795820F931F90930502809371
:1006D000040281E080935D0249C040910402509180
:1006E00005026091600270916102DB01A095B095F6
:1006F00020910602E0910702841B950BA817B90709
:1007000068F126952E2B460F571F3F5F861B970BD0
:100710003930A0F32093060280916F008B7F809385
:100720006F0080915C028F5F803508F080E09091CF
:100730005B02891749F0E82FF0E090910602E85F2C
:10074000FD4F908380935C02809181008F7B80932A
:1007500081001092070210925D0208C020930602E9
:10076000509305024093040230935D02FF91EF9194
:10077000BF91AF919F918F917F916F915F914F91B9
:100780003F912F910F900FBE0F901F9018951F92C1
:100790000F920FB60F9211242F933F934F935F93B5
:1007A0006F937F938F939F93EF93FF9380915A0260
:1007B000609103022091880030918900409160028D
:1007C00050916102909102028A30F8F4240F351F93
:1007D000893019F0762F717001C071E066958F5FD6
:1007E000791791F390918000772311F0906C02C0FB
:1007F0009F7B9068909380003093890020938800BD
:1008000070930202609303024AC090915902E091F2
:1008100058029E1319C08A3051F48BE080935A021B
:10082000240F351F30938900209388003AC010921E
:100830005A02809180008F738093800080916F00B6
:100840008D7F80936F002DC0EF5FE43408F0E0E00F
:10085000E0935802F0E0E254FE4F9081909303023F
:1008600010920202909180009F7B9068909380008C
:100870008A3059F48091600290916102280F391FEB
:10088000309389002093880009C080918400909162
:1008900085004096909389008093880081E0809342
:1008A0005A02FF91EF919F918F917F916F915F918C
:1008B0004F913F912F910F900FBE0F901F90189561
:1008C000EBE6F2E01382128288EE93E0A0E0B0E063
:1008D00084839583A683B78326E031E03183208328
:1008E00025EC30E03587248724EC30E037872687F5
:1008F00020EC30E0318B208B21EC30E0338B228BED
:1009000022EC30E0358B248B26EC30E0378B268BC5
:10091000118E128E138E148EE8E0F3E01382128291
:1009200084839583A683B78388E191E09183808354
:100930000895789484B5826084BD84B5816084BD57
:1009400085B5826085BD85B5816085BD80916E006D
:10095000816080936E00109281008091810082609E
:1009600080938100809181008160809381008091DB
:1009700080008160809380008091B10084608093CA
:10098000B1008091B00081608093B00080917A00C6
:10099000846080937A0080917A00826080937A00EC
:1009A00080917A00816080937A0080917A008068DB
:1009B00080937A001092C100E0917B02F0917C025A
:1009C00082E08083E0917702F09178021082E091DA
:1009D0007902F0917A028FEC808310928302E09189
:1009E0007F02F091800286E08083E0917D02F091A9
:1009F0007E02808180618083E0917D02F0917E02A1
:100A0000808188608083E0917D02F0917E02808108
:100A100080688083E0917D02F0917E0280818F7DED
:100A2000808389E291E00E94120284E391E00E94B7
:100A300024028AE891E00E94120285E991E00E9476
:100A4000240282E391E00E94240210926F0010922F
:100A5000800081E88093810083E896E090936102B2
:100A6000809360028BE39CE390935F0280935E022D
:100A7000ECEAF0E02491E8E9F0E084918823C1F009
:100A800090E0880F991FFC01EA57FF4FC591D49160
:100A9000FC01E458FF4FA591B4919FB7F894888169
:100AA000322F309583238883EC91E22BEC939FBF08
:100AB000E1E7F0E024914DEA50E0FA01649189E920
:100AC00090E0FC0174917723B9F1222339F12330AE
:100AD00091F038F42130A9F0223001F534B53F7D92
:100AE00012C0273091F02830A1F02430B9F43091B1
:100AF00080003F7D03C0309180003F7730938000BD
:100B00000DC034B53F7734BD09C03091B0003F7798
:100B100003C03091B0003F7D3093B000E72FF0E08C
:100B2000EE0FFF1FE458FF4FA591B4913FB7F89423
:100B30002C91262B2C933FBFFA014491FC01849108
:100B4000882399F090E0880F991FFC01EA57FF4F26
:100B5000A591B491FC01E458FF4F859194919FB702
:100B6000F8948C91482B4C939FBF10925D02109289
:100B70005C0210925B0210925A021092590210927B
:100B8000580280E286BB80936F0081EA91E00E9468
:100B90002402D1E088E093E00E949401892B59F06F
:100BA00088E093E00E94B60180930101682F8BE6F4
:100BB00092E00E941B018BE692E00E94E300892BE9
:100BC00009F18BE692E00E94C100809301018A3016
:100BD00021F08D3011F00E94CC018091000188231A
:100BE00031F08AEB91E00E94120210920001C09154
:100BF00001016C2F8BE692E00E941B01CA3011F4B8
:100C0000D09300010E948A01C5CF88E191E09093C2
:100C100009038093080380916F008B7F80936F009E
:100C200080916F008F7D80936F0080915B02809335
:100C30005C0280915A028111FCCF80916F008D7F00
:100C400080936F000895EE0FFF1F0590F491E02D43
:100C5000099481E090E0F8940C942E0610E0CDE524
:100C6000D0E004C0FE010E9423062196CE35D107B4
:060C7000C9F7F894FFCF64
:100C76000120000000001B018800B2006801E300AB
:100C8600C100D50000000000080288000F02030220
:100C96009401B601A3010D0A00536B657463683AAB
:100CA600202020002F686F6D652F68616E64696B68
:100CB6006F2F42542D546573742D41542D436F6D1F
:100CC6006D616E642F41726475696E6F20536B653A
:100CD6007463682F53657269616C5F42545F617318
:100CE6006B5F41542F53657269616C5F42545F615B
:100CF600736B5F41542E696E6F0055706C6F616443
:100D060065643A200044656320203820323031384B
:100D160000425473657269616C2073746172746504
:0E0D2600642061742039363030000D0A3E0022
:00000001FF
